:100000000C9462000C948A000C948A000C948A0070
:100010000C948A000C948A000C948A000C948A0038
:100020000C948A000C948A000C948A000C948A0028
:100030000C948A000C948A000C948A000C948A0018
:100040000C9409050C948A000C94D7040C94B10408
:100050000C948A000C948A000C948A000C948A00F8
:100060000C9453050C948A00000000002400270023
:100070002A0000000000250028002B0000000000DE
:1000800023002600290004040404040404040202DA
:100090000202020203030303030301020408102007
:1000A0004080010204081020010204081020000012
:1000B0000008000201000003040700000000000027
:1000C0000000720611241FBECFEFD8E0DEBFCDBF07
:1000D00011E0A0E0B1E0EAEAFAE102C005900D9279
:1000E000A037B107D9F722E0A0E7B1E001C01D9227
:1000F000A73FB207E1F710E0C2E6D0E004C02197C5
:10010000FE010E944D0DC136D107C9F70E94C406F9
:100110000C94530D0C94000008950895AF92BF9273
:10012000CF92DF92EF92FF920F931F93CF93DF93C3
:100130006C017B018B01040F151FEB015E01AE18F2
:10014000BF08C017D10759F06991D601ED91FC9114
:100150000190F081E02DC6010995892B79F7C50141
:10016000DF91CF911F910F91FF90EF90DF90CF9093
:10017000BF90AF900895FC01538D448D252F30E042
:10018000842F90E0821B930B541710F0CF960895A4
:1001900001970895FC01918D828D981761F0A28DD1
:1001A000AE0FBF2FB11D5D968C91928D9F5F9F7397
:1001B000928F90E008958FEF9FEF0895FC01918D4D
:1001C000828D981731F0828DE80FF11D858D90E0BA
:1001D00008958FEF9FEF0895FC01918D228D892F57
:1001E00090E0805C9F4F821B91098F73992708953F
:1001F00085E392E00E94EC0021E0892B09F420E0E5
:10020000822F089580E090E0892B29F00E94F80069
:1002100081110C9400000895FC01A48DA80FB92F42
:10022000B11DA35ABF4F2C91848D90E001968F731E
:100230009927848FA689B7892C93A089B1898C913D
:10024000837080648C93938D848D981306C002888C
:10025000F389E02D80818F7D80830895EF92FF9256
:100260000F931F93CF93DF93EC0181E0888F9B8DD9
:100270008C8D98131AC0E889F989808185FF15C093
:100280009FB7F894EE89FF896083E889F9898081B6
:100290008370806480839FBF81E090E0DF91CF9185
:1002A0001F910F91FF90EF900895F62E0B8D10E0A7
:1002B0000F5F1F4F0F731127E02E8C8D8E110CC016
:1002C0000FB607FCFACFE889F989808185FFF5CF61
:1002D000CE010E940C01F1CFEB8DEC0FFD2FF11D33
:1002E000E35AFF4FF0829FB7F8940B8FEA89FB899E
:1002F00080818062CFCFCF93DF93EC01888D8823FC
:10030000B9F0AA89BB89E889F9898C9185FD03C078
:10031000808186FD0DC00FB607FCF7CF8C9185FF5D
:10032000F2CF808185FFEDCFCE010E940C01E9CF95
:10033000DF91CF910895833081F028F4813099F0D6
:100340008230A9F008958730A9F08830C9F0843050
:10035000B1F4809180008F7D03C0809180008F7701
:1003600080938000089584B58F7784BD089584B507
:100370008F7DFBCF8091B0008F778093B000089580
:100380008091B0008F7DF9CFCF93DF93282F30E09D
:10039000F901E255FF4F8491F901E656FF4FD491E0
:1003A000F901EA57FF4FC491CC23A1F081110E94BB
:1003B0009B01EC2FF0E0EE0FFF1FE458FF4FA591DB
:1003C000B491EC91ED2381E090E009F480E0DF91BD
:1003D000CF91089580E090E0FACF1F93CF93DF9301
:1003E000282F30E0F901E255FF4F8491F901E656DC
:1003F000FF4FD491F901EA57FF4FC491CC23A9F0E4
:10040000162F81110E949B01EC2FF0E0EE0FFF1FD1
:10041000EE58FF4FA591B4918FB7F894EC9111115C
:1004200008C0D095DE23DC938FBFDF91CF911F9161
:100430000895DE2BF8CFCF93DF9390E0FC01E656D2
:10044000FF4F24918A579F4FFC0184918823C9F064
:1004500090E0880F991FFC01E859FF4FA591B491D6
:10046000FC01EE58FF4FC591D49161110DC09FB7AB
:10047000F8948C91209582238C938881282328835B
:100480009FBFDF91CF910895623051F49FB7F894E8
:100490003C91822F809583238C93E8812E2BEFCF84
:1004A0008FB7F894EC912E2B2C938FBFEACF3FB7E8
:1004B000F89480911A0290911B02A0911C02B091B5
:1004C0001D0226B5A89B05C02F3F19F00196A11D5E
:1004D000B11D3FBFBA2FA92F982F8827BC01CD018E
:1004E000620F711D811D911D42E0660F771F881FED
:1004F000991F4A95D1F708958F929F92AF92BF921C
:10050000CF92DF92EF92FF924B015C010E94570263
:100510006B017C010E9457026C197D098E099F09AD
:10052000683E734081059105A8F321E0821A910885
:10053000A108B10888EEC80E83E0D81EE11CF11CAA
:1005400081149104A104B10429F7FF90EF90DF908A
:10055000CF90BF90AF909F908F900895089585EDB4
:100560008093BC008091BC0084FDFCCF10922802D7
:1005700008952091B001260F3327331F2132310512
:10058000ECF420912802FC0190E080E0243069F036
:1005900082E00895A091B0012191AC0140575E4FD7
:1005A000A40FB52FB11D2C930196861798F3809157
:1005B000B001680F6093B00180E0089581E0089574
:1005C0000895E0912C0280912B02E81730F4F0E0BE
:1005D000E059FE4F808190E008958FEF9FEF0895DE
:1005E00090912C0280912B022FEF3FEF981748F447
:1005F000E92FF0E0E059FE4F208130E09F5F9093BB
:100600002C02C901089580912B0290912C02891B24
:10061000990B0895CF92DF92EF92FF920F931F9361
:10062000CF93DF937C01CB018A012091F701222334
:1006300089F0EB016B01C40ED51ECC15DD0569F008
:100640006991D701ED91FC910190F081E02DC701F6
:100650000995F3CF642F0E94B902C801DF91CF91B1
:100660001F910F91FF90EF90DF90CF900895CF935F
:10067000DF931F92CDB7DEB769832091F701222364
:10068000F9F020912902203258F021E030E0FC01FD
:100690003383228390E080E00F90DF91CF91089523
:1006A00080912A02E82FF0E0E850FE4F9981908374
:1006B0008F5F80932A028093290281E090E0ECCF43
:1006C00061E0CE0101960E94B902F7CFCF93FC0101
:1006D000C48121E02093F701C093180210922A02EE
:1006E000109229028385682B82ED92E00E943703E5
:1006F00090912902913208F03FC080912802811127
:10070000FCCF82E08093280281E0809327028FEF64
:100710008093F6011092F5019093F401A8EFB1E0F7
:10072000E4EDF1E080E098132FC01092D3018091A6
:10073000D301CC0FC82BC093D30180912602813006
:1007400039F5109226028091D3018093BB008091ED
:10075000BC0083FDF8CF85EC8093BC00809128021B
:100760008230E1F38091F6018F3F31F08091F60104
:10077000803211F08091F60110922A021092290223
:100780001092F701CF9108952D9121938F5FCBCFD8
:1007900085EEE2CF90E080E008950F931F93CF9312
:1007A0008C01C62F0E9466036C2F6460C8010E94F2
:1007B00066036C2F6B7FC8010E94660383EC90E098
:1007C0000197F1F7CF911F910F9108950F931F9308
:1007D000CF93DF938C01D62FC42F607F642B0E94B0
:1007E000CD0380E1D89FB00111246C2BC801DF91AB
:1007F000CF911F910F910C94CD03CF93DF93CDB781
:10080000DEB728970FB6F894DEBF0FBECDBF98E0D5
:10081000E8E0F1E0DE01119601900D929A95E1F782
:100820009091F402961708F46FEF262F30E0220F14
:10083000331F41E050E04C0F5D1F240F351FF901BD
:100840006081680F606840E08BEE92E028960FB6FA
:10085000F894DEBF0FBECDBFDF91CF910C94E603BD
:1008600041E00E94E60381E090E00895FB010190E1
:100870000020E9F73197AF01461B570BDC01ED91E2
:10088000FC910280F381E02D09948F929F92AF92A8
:10089000BF92EF92FF920F931F93CF93DF93CDB749
:1008A000DEB7A1970FB6F894DEBF0FBECDBF7C01B7
:1008B000FA01CB0119A2223008F42AE08E010F5D63
:1008C0001F4F822E912CB12CA12CBF01A5019401A8
:1008D0000E942B0DF901CA016A300CF5605DD80148
:1008E0006E938D01232B242B252B79F790E080E04C
:1008F000109721F0BD01C7010E943604A1960FB6E2
:10090000F894DEBF0FBECDBFDF91CF911F910F9145
:10091000FF90EF90BF90AF909F908F900895695C8B
:10092000DECFCF92DF92EF92FF926B017C0141E02C
:100930006DE28BEE92E00E94E60344275527BA0150
:100940004C195D096E097F092AE08BEE92E00E9446
:1009500045040196FF90EF90DF90CF9008950C949E
:1009600036041F920F920FB60F9211242F933F93CC
:100970004F935F936F937F938F939F93AF93BF93A7
:10098000EF93FF9385E392E00E940C01FF91EF91BA
:10099000BF91AF919F918F917F916F915F914F9197
:1009A0003F912F910F900FBE0F901F9018951F929F
:1009B0000F920FB60F9211242F938F939F93EF9363
:1009C000FF93E0914502F09146028081E0914B0255
:1009D000F0914C0282FD1BC0908180914E028F5F8E
:1009E0008F7320914F02821741F0E0914E02F0E0A8
:1009F000EB5CFD4F958F80934E02FF91EF919F919D
:100A00008F912F910F900FBE0F901F90189580819E
:100A1000F4CF1F920F920FB60F9211242F933F9392
:100A20008F939F93AF93BF9380911E0290911F026B
:100A3000A0912002B09121023091190223E0230FEE
:100A40002D3758F50196A11DB11D209319028093F1
:100A50001E0290931F02A0932002B0932102809166
:100A60001A0290911B02A0911C02B0911D020196E6
:100A7000A11DB11D80931A0290931B02A0931C022A
:100A8000B0931D02BF91AF919F918F913F912F9194
:100A90000F900FBE0F901F90189526E8230F029617
:100AA000A11DB11DD2CF1F920F920FB60F9211242C
:100AB0002F933F934F935F936F937F938F939F9366
:100AC000AF93BF93EF93FF938091B900887F8036F7
:100AD00009F44AC0F0F5883209F4A7C018F580314E
:100AE00009F49BC0B8F4882309F4F9C0883009F4EC
:100AF00094C0FF91EF91BF91AF919F918F917F91A2
:100B00006F915F914F913F912F910F900FBE0F907A
:100B10001F901895883109F488C0803251F780936E
:100B2000F60114C0803409F49DC040F48033B9F359
:100B30008833F9F68093F60185ECB0C0803509F46E
:100B400085C0883509F496C0883499F60E94AF02B2
:100B5000D0CF883909F48CC038F5883729F050F4A3
:100B6000883611F0803729F683E0809328021092AE
:100B7000D20157C0883809F47BC0803919F0803819
:100B800009F0B7CF8091D201803208F071C0E091B6
:100B9000D20181E08E0F8093D2018091BB00F0E002
:100BA000EE54FE4F80833DC0803B39F0E0F4803A44
:100BB00009F479C0883A09F09CCF84E08093280238
:100BC0001092B1011092B001E0912402F09125023F
:100BD00009958091B00181110FC081E08093B0012F
:100BE0001092900109C0803C09F4A6CF883C09F41A
:100BF000A3CF883B09F07DCFE091B10181E08E0F5A
:100C00008093B101F0E0E057FE4F80818093BB00FC
:100C10009091B1018091B00129C08091D30180935E
:100C2000BB0085EC8093BC0064CF9091F50180916E
:100C3000F401981758F5E091F50181E08E0F80934B
:100C4000F501F0E0EC52FE4F8081E9CFE091F50133
:100C500081E08E0F8093F5018091BB00F0E0EC52B3
:100C6000FE4F80839091F5018091F4019817C8F2AE
:100C700085E8D8CFE091F50181E08E0F8093F501F2
:100C80008091BB00F0E0EC52FE4F80838091270200
:100C900081115CCF81E08093260284EA8093BC00BE
:100CA0001092280226CF85EC8093BC001092280277
:100CB0008091D201803230F4E091D201F0E0EE5424
:100CC000FE4F10826091D20170E0E0912202F0911B
:100CD000230282EB91E009951092D2010ACF109283
:100CE000F60134CFE5E3F2E01382128288EE93E05E
:100CF000A0E0B0E084839583A683B78324E131E04C
:100D00003183208325EC30E03587248724EC30E0E4
:100D10003787268720EC30E0318B208B21EC30E0C8
:100D2000338B228B22EC30E0358B248B26EC30E0A9
:100D3000378B268B118E128E138E148EE2EDF2E01D
:100D40001382128284839583A683B78386E291E01F
:100D500091838083EBEEF2E01382128288E391E0CC
:100D60009183808387E2848380E1808782E081872A
:100D7000128688E08387EEEDF2E08EE086838BE0DA
:100D8000878381E084870895789484B5826084BDE8
:100D900084B5816084BD85B5826085BD85B581607F
:100DA00085BD80916E00816080936E0010928100FD
:100DB00080918100826080938100809181008160B8
:100DC0008093810080918000816080938000809179
:100DD000B10084608093B1008091B0008160809305
:100DE000B00080917A00846080937A0080917A00CC
:100DF000826080937A0080917A00816080937A008B
:100E000080917A00806880937A001092C100E0910E
:100E10004502F091460282E08083E0914102F09128
:100E200042021082E0914302F09144028FEC8083F1
:100E300010924D02E0914902F0914A0286E08083CF
:100E4000E0914702F0914802808180618083E091C7
:100E50004702F0914802808188608083E0914702D8
:100E6000F0914802808180688083E0914702F09190
:100E7000480280818F7D808362E08EE00E941B02A9
:100E800062E085E00E941B0262E084E00E941B0297
:100E900061E088E00E941B0261E088E00E94ED01B1
:100EA00061E083E00E941B0261E083E00E94ED01AB
:100EB00080E090E0A0E0B2E480932D0290932E02B7
:100EC000A0932F02B09330022BE9222E312C3BE469
:100ED000E32E36E4F32ECBE3DFE188E4C82E98E07E
:100EE000D92E85E00E94C4010197F9F420E030E09A
:100EF00040E85FE360912D0270912E0280912F02F5
:100F0000909130020E94EE0A4B015C0120E030E03B
:100F1000A9010E945A0B87FD83C080922D029092F6
:100F20002E02A0922F02B092300284E00E94C401EF
:100F3000019709F520E030E040E85FE360912D0281
:100F400070912E0280912F02909130020E94ED0A42
:100F50004B015C0120E030E046E153E40E94B90C13
:100F600018160CF466C080922D0290922E02A09268
:100F70002F02B092300261E08091E4020E94ED0104
:100F80006AEF70E080E090E00E947C022FB7F89456
:100F900080911E0290911F02A0912002B091210227
:100FA0002FBF4091E6025091E7026091E8027091F4
:100FB000E90284179507A607B70740F41092E602E6
:100FC0001092E7021092E8021092E9022091EA02E0
:100FD00021113CC04091E6025091E7026091E80285
:100FE0007091E902841B950BA60BB70B803D9740CF
:100FF000A105B10558F58091E5028B3009F4B0C028
:1010000020F08551823008F478C260E471E085E315
:1010100092E00E94AF0460E070E080EC9FE7A7C020
:1010200010922D0210922E0210922F021092300276
:101030007CCF80E090E0A6E1B3E480932D02909312
:101040002E02A0932F02B093300295CF1092EA02A5
:101050002FB7F89480911E0290911F02A091200258
:10106000B09121022FBF8093E6029093E702A093F4
:10107000E802B093E9021092E2021092E1021092AB
:10108000E0021092DF021092DE0261E08091E40241
:101090000E941B0260E08091E4020E94ED0164E185
:1010A00070E080E090E00E947C02F89461E0809122
:1010B000E4020E94ED01C1010197F1F760E0809127
:1010C000E4020E941B02912C81E0B12CA12C082F7C
:1010D00010E08091E4020E94C4018017910721F47E
:1010E000A3948FEFA812F5CF8091E4020E94C4016F
:1010F0009FEFA916B9F0E3E0EB1580F4B0FC0EC049
:10110000E92DE695E695E695F0E0E252FD4F9081F7
:10111000990F26E02A1510F190839394B39495E5E6
:10112000B912D4CF7894E7E2E91508F06ECF209198
:10113000E2028091DE029091DF02890F9927991FC8
:101140003091E002830F911D3091E102830F911DD8
:1011500099272817190609F058CF4DCF9160DCCF99
:101160006091E00270E090E080E00E94070C6093E4
:10117000310270933202809333029093340260E024
:101180008091E4020E941B0261E08091E4020E94CF
:10119000ED011092E6021092E7021092E80210921E
:1011A000E90210922C0210922B0210922A02109245
:1011B00029021092280281E08093270210922602D1
:1011C00061E082E10E94ED0161E083E10E94ED01B6
:1011D0008091B9008E7F8093B9008091B9008D7F96
:1011E0008093B900C092B800F5E4F093BC008CE89D
:1011F00090E09093250280932402EDE8F0E0F093D4
:101200002302E09322021092F0028091F4028230D5
:1012100010F0D092F0029091F502992339F08130CC
:1012200029F48091F00284608093F00262E370E020
:1012300080E090E00E947C026091F6028BEE92E0EA
:101240000E94660368EE73E080E090E00E947C02FA
:1012500060E38BEE92E00E94CD03C7010197F1F7A6
:1012600060E38BEE92E00E94CD03C7010197F1F796
:1012700060E38BEE92E00E94CD0383E592E001975C
:10128000F1F760E28BEE92E00E94CD036091F002F4
:10129000606240E08BEE92E00E94E60384E080937F
:1012A000F10240E06CE08BEE92E00E94E60340E049
:1012B00061E08BEE92E00E94E603CE010197F1F728
:1012C000F2E0F093F20240E066E08BEE92E00E94E2
:1012D000E60340E062E08BEE92E00E94E603CE017E
:1012E0000197F1F7D092F60260E08BEE92E00E9457
:1012F000660340E061E08BEE92E00E94E603CE01DF
:101300000197F1F740E062E08BEE92E00E94E60385
:10131000CE010197F1F76AE471E085E392E00E9463
:10132000AF042AE040E050E0BA0185E392E00E9479
:1013300045046EE285E392E00E942E012AE040E03F
:1013400050E0BA0185E392E00E9445042AE040E0C3
:1013500050E0BA0185E392E00E9445046FE471E039
:1013600085E392E00E94360460E080E00E94FD0385
:1013700062E571E08BEE92E00E94AF0460E08AE0EB
:101380000E94FD038090310290903202A0903302BF
:10139000B090340220E030E0A901C501B4010E9400
:1013A000B90C20E030E040E05FE387FDCCC0C50130
:1013B000B4010E94EE0A0E94D10B97FFC9C00E949F
:1013C000910461E571E08BEE92E00E94AF0461E070
:1013D0008BEE92E00E9430046DE571E08BEE92E0BE
:1013E0000E94AF0461E080E00E94FD036FE571E0C0
:1013F0008BEE92E00E94AF0461E085E00E94FD0365
:1014000080902D0290902E02A0902F02B09030027A
:1014100020E030E0A901C501B4010E94B90C20E030
:1014200030E040E05FE387FD9BC0C501B4010E944E
:10143000EE0A0E94D10B97FF98C00E94910461E5CB
:1014400071E08BEE92E00E94AF0461E08BEE92E0DF
:101450000E9430046DE571E08BEE92E00E94AF04D3
:1014600040E068E48BEE92E00E94E60300E011E0C9
:10147000F80161918F018BEE92E00E94300488E0C8
:1014800091E080179107A1F740903102509032020D
:10149000609033027090340280902D0290902E0262
:1014A000A0902F02B090300220E030E040E05FE3F7
:1014B000C301B2010E94EE0AA50194010E945A0BD9
:1014C00087FF5BC061E088E00E94ED0161E08BE096
:1014D0000E94FD0366E671E08BEE92E00E94AF048D
:1014E000E0E0F0E0EF2B09F4FCCC0E94F800882348
:1014F00009F4F3CC0E940000F0CC1091E002612FBF
:101500006F7770E090E080E00E94090C20E030E00E
:1015100040E853E40E94BE0C4B015C016091E10283
:1015200070E090E080E00E94090CA50194010E9407
:10153000EE0A20E030E040E251E40E945F0B17FF2A
:1015400016CE905814CEC501B4010E94ED0A33CFD7
:101550002AE0AB01BC018BEE92E00E94450431CF42
:10156000C501B4010E94ED0A64CF2AE0AB01BC01C1
:101570008BEE92E00E94450462CF20E030E040E034
:101580005FE3C301B2010E94ED0A9B01AC01C501FA
:10159000B4010E945A0B18160CF4A2CF60E088E048
:1015A0000E94ED0160E083E00E94ED0160E273E0E3
:1015B00080E090E00E947C0261E083E00E94ED0107
:1015C00060E273E080E090E00E947C0261E08BE0EA
:1015D0000E94FD036BE671E07FCF5058BB27AA271E
:1015E0000E94050B0C947F0C0E94710C38F00E9435
:1015F000780C20F039F49F3F19F426F40C946E0C0B
:101600000EF4E095E7FB0C94680CE92F0E94900C17
:1016100058F3BA17620773078407950720F079F427
:10162000A6F50C94B20C0EF4E0950B2EBA2FA02D5B
:101630000B01B90190010C01CA01A0011124FF277F
:10164000591B99F0593F50F4503E68F11A16F0407A
:10165000A22F232F342F4427585FF3CF4695379579
:101660002795A795F0405395C9F77EF41F16BA0B3E
:10167000620B730B840BBAF09150A1F0FF0FBB1FEC
:10168000661F771F881FC2F70EC0BA0F621F731F35
:10169000841F48F4879577956795B795F7959E3F92
:1016A00008F0B0CF9395880F08F09927EE0F979523
:1016B000879508950E94440C08F481E008950E94E3
:1016C000730B0C947F0C0E94780C58F00E94710CE4
:1016D00040F029F45F3F29F00C94680C51110C94F0
:1016E000B30C0C946E0C0E94900C68F39923B1F328
:1016F000552391F3951B550BBB27AA276217730738
:10170000840738F09F5F5F4F220F331F441FAA1FCB
:10171000A9F335D00E2E3AF0E0E832D09150504087
:10172000E695001CCAF72BD0FE2F29D0660F771F35
:10173000881FBB1F261737074807AB07B0E809F01B
:10174000BB0B802DBF01FF2793585F4F3AF09E3FA0
:10175000510578F00C94680C0C94B30C5F3FE4F3E3
:10176000983ED4F3869577956795B795F7959F5FE3
:10177000C9F7880F911D9695879597F90895E1E02F
:10178000660F771F881FBB1F621773078407BA078E
:1017900020F0621B730B840BBA0BEE1F88F7E095E9
:1017A00008950E94D80B6894B1110C94B30C08955D
:1017B0000E94980C88F09F5798F0B92F9927B7513D
:1017C000B0F0E1F0660F771F881F991F1AF0BA95E5
:1017D000C9F714C0B13091F00E94B20CB1E0089585
:1017E0000C94B20C672F782F8827B85F39F0B93F77
:1017F000CCF3869577956795B395D9F73EF4909598
:101800008095709561957F4F8F4F9F4F0895E89415
:1018100009C097FB3EF490958095709561957F4F38
:101820008F4F9F4F9923A9F0F92F96E9BB279395E6
:10183000F695879577956795B795F111F8CFFAF4F6
:10184000BB0F11F460FF1BC06F5F7F4F8F4F9F4F27
:1018500016C0882311F096E911C0772321F09EE885
:10186000872F762F05C0662371F096E8862F70E0EB
:1018700060E02AF09A95660F771F881FDAF7880FC5
:101880009695879597F90895990F0008550FAA0B1B
:10189000E0E8FEEF16161706E807F907C0F0121683
:1018A0001306E407F50798F0621B730B840B950B86
:1018B00039F40A2661F0232B242B252B21F40895DB
:1018C0000A2609F4A140A6958FEF811D811D089578
:1018D00097F99F6780E870E060E008959FEF80ECE3
:1018E000089500240A941616170618060906089586
:1018F00000240A9412161306140605060895092EEC
:101900000394000C11F4882352F0BB0F40F4BF2B5A
:1019100011F460FF04C06F5F7F4F8F4F9F4F08959A
:1019200057FD9058440F551F59F05F3F71F0479590
:10193000880F97FB991F61F09F3F79F08795089575
:10194000121613061406551FF2CF4695F1DF08C094
:10195000161617061806991FF1CF869571056105B1
:1019600008940895E894BB2766277727CB0197F959
:1019700008950E94440C08F48FEF08950E94D10C42
:101980000C947F0C0E94710C38F00E94780C20F0AF
:10199000952311F00C94680C0C946E0C11240C948B
:1019A000B30C0E94900C70F3959FC1F3950F50E01B
:1019B000551F629FF001729FBB27F00DB11D639F01
:1019C000AA27F00DB11DAA1F649F6627B00DA11DA7
:1019D000661F829F2227B00DA11D621F739FB00D4D
:1019E000A11D621F839FA00D611D221F749F3327BD
:1019F000A00D611D231F849F600D211D822F762F56
:101A00006A2F11249F5750409AF0F1F088234AF032
:101A1000EE0FFF1FBB1F661F771F881F915050409E
:101A2000A9F79E3F510580F00C94680C0C94B30C00
:101A30005F3FE4F3983ED4F3869577956795B79525
:101A4000F795E7959F5FC1F7FE2B880F911D96953F
:101A5000879597F90895A1E21A2EAA1BBB1BFD01D9
:101A60000DC0AA1FBB1FEE1FFF1FA217B307E4077D
:101A7000F50720F0A21BB30BE40BF50B661F771FD5
:101A8000881F991F1A9469F76095709580959095B5
:101A90009B01AC01BD01CF010895EE0FFF1F059022
:0A1AA000F491E02D0994F894FFCFB3
:101AAA000E0A0E000000000000004000140054005E
:101ABA00000000002E018E00BB007B01EC00CA0072
:101ACA00DE000000000037030A03CA03E002030332
:101ADA00F002E1020000000030048E00CA03AE02E8
:101AEA0052656164206661696C0043203D20000DE7
:101AFA000A004E4849455420444F3A2000430043C7
:101B0A004149203A2000444F4E4700204D4F0000E3
:00000001FF
